:1000000040100020699C0000F7840000119500005A
:1000100000000000000000000000000000000000E0
:10002000000000000000000000000000719C0000C3
:100030000000000000000000719C00001795000007
:10004000719C0000719C0000719C0000C184000044
:10005000719C0000719C0000719C0000719C00006C
:10006000719C0000459400006D940000719C00009C
:10007000E5950000719C0000719C0000719C0000DF
:10008000719C0000719C0000719C0000719C00003C
:10009000CD930000F59300001D940000719C0000BA
:1000A000719C0000719C0000719C0000719C00001C
:0C00B000719C0000719C0000719C00001D
:1000BC0004B004000096FC001E24004200280042FC
:1000CC00002C004200300042003400420038004254
:1000DC00003C004200400042F4000440420F000883
:0200EC00F90019
:10200400E022520080180268914203D34368D21838
:10201400914202D380680028F5D1704718480168BE
:1020240000290ED180214902816009094160002103
:10203400C943C160016104214161124A116012491E
:1020440001600120704730B407230C0008341C429F
:1020540001D1002304E008240D000835641B23404B
:10206400C918D21A8161C260012313434B6028232B
:1020740089184B6002490969C16130BC704700008E
:10208400EC2F0020FC2100206859883CF0B587B073
:10209400040007200D000835054205D008250E0070
:1020A4000836AD1B0540491902911100083101425F
:1020B40005D0082115000835491B084012181700DF
:1020C4000298C018039005460298381AC01A019065
:1020D4000326334302984360BD4201D301F000F864
:1020E4003879C00701D400F0FBFF0198102801D211
:1020F40000F0F6FFA069874208D1E0680199401812
:10210400E060A5610121014369606AE16069874279
:1021140009D1A06801994018A060656101210143BB
:10212400696028505DE178680640012E00D0B9E06E
:10213400072188430590C00820283CD2B968009143
:10214400FE680490B74201D100F0CAFF00988742AC
:1021540001D100F0C5FF7868072188430499C900BC
:10216400884201D000F0BCFF0498C00020180099F8
:1021740002002832914207D02269914200D289E0BC
:10218400C968B94200D085E000998E4206D1206822
:102194000121049A9140884320607DE028308642E2
:1021A40005D02069864275D3B068B84272D1CE603A
:1021B4000098B06070E0B8690090FE68BE420CD030
:1021C400B8682169884225D3C168B94222D1B1686F
:1021D400B9421FD1C660B0601EE0380014300668F2
:1021E400002E07D1380010300668002E14D001E00C
:1021F40008000668310014310A68002AF8D1310059
:1022040010310A68002AF3D12169884202D30021DF
:10221400016001E000F064FF009800283CD0F869F8
:102224008000201898214900401801688F4209D184
:102234000660002E14D160680121FA699140884338
:10224400606029E000982169884207D30069B84298
:10225400009801D1066103E0466101E000F040FF0F
:10226400002E19D02069864214D30099B1613969CE
:10227400002906D0814202D331618E6101E000F071
:102284002FFF7869002807D02169884202D3706142
:10229400866101E000F024FF05983F180198059934
:1022A40040180190786801218843786001980143BF
:1022B4006960019828500198C008202822D2009013
:1022C400C000271828373E000198102801D200F0DA
:1022D40007FF206800990200CA40D10705D40121F4
:1022E400009A91400143216007E0B868216988425F
:1022F40001D3060001E000F0F3FEBD60F560AE60BE
:10230400EF606EE00198000A01D1002225E08021EF
:102314004902884201D31F221FE0FF21C94341180B
:10232400090C082211408840304A8218120C0423F8
:102334001A4090402E4BC3181B0C022633400E2625
:10234400711A891AC91A9840C00B08184100019AD9
:10235400C01DC240D007C00F0A1890002018982151
:1023640049004118EA6100206861286163681E0021
:10237400D640F60705D401209040184360600D60F4
:102384001BE009681F2A019B05D019265208B21ABE
:10239400934000E011004A680726B243019EB2420E
:1023A40010D0DA0F92008E1810365B003268002AC3
:1023B400F0D12069864212D33560A961ED6003989B
:1023C400A8600EE08A682369994208D39A4206D32A
:1023D400D560039B8B60AA60E960A86101E000F00E
:1023E4007FFE0298083007B0F0BD000000F0FFFF48
:1023F40000C0FFFFF2B586B004008F4800680028D3
:1024040001D1FFF70BFE8C488168069840182F30E5
:10241400491E88430699814200D3DCE1D821490052
:1024240061188968002909D0D8225200A2581018CE
:10243400824200D3CFE1814200D2CCE100F056FECB
:10244400002800D1C7E1009007680021C9438842F1
:1024540000D1C0E1D82040002058C019D82149003B
:10246400605061184968814200D20100D8204000C0
:1024740020184160A069002839D12069002802D0C1
:102484000099814201D2009820610098D821490026
:1024940061180861D8204000201847610026D82020
:1024A40040002018C6616448006860620020C04390
:1024B400206220002830C0600146816008314161FB
:1024C4000161B61C1030202EF5D3C448844203D1D8
:1024D400283F3A00009926E0201F0068072188431E
:1024E400211808390098C019421A283A1BE0E02044
:1024F4004000201800E08068002818D00099026885
:102504004368D2189142F6D1017B09070FD4A1691F
:10251400026891420BD3D218914208D2D919416072
:10252400E068C219A1692000FFF78DFD3FE1009822
:102534002169884200D22061E020400020180099DF
:10254400C91900E08068002810D002688A42F9D1D5
:10255400017B09070AD4009901604168C9194160E7
:10256400069B00992000FFF791FD35E1A0690390D7
:10257400054629002000FFF743FD0168406808185C
:10258400059027380026410701D1002003E00821E7
:10259400081A4007400F059908182F3829001031F0
:1025A400884201D2019500E0019001981830029010
:1025B40004963800283800990831490701D10021D0
:1025C40005E00821009A0832891A4907490F401A80
:1025D400009A5118A161E060012202434A60282256
:1025E4000818426014480069E06101980830400707
:1025F40001D000F075FD1B20019948600198083056
:10260400E02149006118102200F09AFD0098D821B9
:10261400490061180861D820400020184761D8207B
:1026240040002018C66101980830D821490061187B
:102634008861059805E000BFEC2F00200299091D70
:1026440002910721029A51600499491C049102994C
:1026540008318142F2D30498022801DA00F040FDE7
:102664000198A84200D1A2E0411B426801239A4389
:10267400426001220A436A600160C808202821D20E
:102684000090C000271828373E00102901D200F01E
:1026940027FD206800990200CA40D10705D4012112
:1026A400009A91400143216007E0B868216988429B
:1026B40001D3060001E000F013FDBD60F560AE60DB
:1026C400EF6074E0080A01D1002228E01A04904265
:1026D40001D31F2223E0FF22D2438218120C0823C5
:1026E4001A40009290403E4A8218120C04231A4069
:1026F40090403C4BC3181B0C02273B4001930E2314
:10270400009FDB1B9A1A019BD21A9840C00B101829
:102714004200C01D0B00C340D807C00F1218900020
:10272400201898235B00C0180090EA616E612E6146
:1027340060680300D340DB0707D4012191400143C3
:1027440061600098056000981DE0009800681F2AE9
:1027540001D10A0006E0192352089B1A0A009A4084
:1027640000E0380043680727BB438B4210D0D30FE7
:102774009B00C318103352001F68002FF1D1216948
:102784008B4212D31D60A861ED600398A8600EE02F
:1027940081682269904208D3914206D3CD60039A9E
:1027A4008260A960E860AE6101E000F099FCE06835
:1027B400069981420FD2401AE060A169069A8A18EC
:1027C400A2610123034353600698032202434A6033
:1027D4000800083000E0002007B0F0BD40200020D1
:1027E40000F0FFFF00C0FFFFF2B584B0040000203A
:1027F400009004984542000A25D08021490288426D
:1028040001D31F201FE0FF21C9434118090C0822EE
:1028140011408840B34A8218120C04231A40904095
:10282400114BC3181B0C022633400E26711A891A49
:10283400C91A9840C00B08184100049AC01DC24030
:10284400D007C00F081881006118982252008B58D5
:10285400002B28D01F28049A03D019214608891B6D
:102864008A40002103E000BF00C0FFFF52005E6801
:102874000727BE43049FF61BAE4202D200933500E5
:102884000CD05E69D70FBF00DB191B69002E02D084
:102894009E4200D03100002BE8D10B00002B3FD129
:1028A400009900293ED10121012282405000434277
:1028B400034362681A4000D178E150421040401E40
:1028C400020B10231A40D040430908263340D84055
:1028D400860804273E400296F040460802273E4000
:1028E4000196F04046083140D218029BD218019B51
:1028F400D2185218C8401018800020189821490096
:1029040043580DE003005868072188430499401A8E
:10291400A84201D20500009318690028F2D15B692E
:10292400002BF0D10098002800D13FE1A068049961
:10293400401A854200D339E1009E2069864200D2C4
:1029440032E1681802900098406807218843029990
:10295400884201D000F0C4FB009804994718BE4295
:1029640000D321E1806901900098C66886420DD0A9
:1029740080682169884225D3C168009A914221D197
:10298400B16891421ED1C660B0601DE01430066883
:10299400002E07D1009810300668002E14D001E0F4
:1029A40008000668310014310A68002AF8D13100A1
:1029B40010310A68002AF3D12169884202D3002128
:1029C400016001E000F08CFB0198002843D00098DE
:1029D400C0698000201898214900401800990268B5
:1029E40091420AD10660002E16D160680121009A36
:1029F400D2699140884360602DE001982169884242
:102A040008D3006900998842019801D1066103E066
:102A1400466101E000F064FB002E1CD02069864270
:102A240017D30198B06100980069002807D0216984
:102A3400884202D33061866101E000F051FB0098C6
:102A44004069002807D02169884202D370618661F9
:102A540001E000F045FB03200121102D0AD2029A67
:102A64001043009A50600098029A801842681143FB
:102A7400416096E0049A1043009A50600120284374
:102A840078607D51E808202819D2C200A61828369B
:102A9400350022681300C3400B4003D18140114329
:102AA400216007E0B0682169884201D3050001E094
:102AB40000F016FBB760EF60BD60FE6071E0280AAD
:102AC40001D100222AE00A04904201D31F2225E00A
:102AD400FF22D2438218120C08231A40019290401C
:102AE400004A01E000F0FFFF8218120C04231A4090
:102AF4009040304BC3181B0C0226334002930E2324
:102B0400019E9B1B9A1A029BD21A9840C00B101864
:102B14004200C01D2B00C3400B40D2189000201867
:102B240098235B00C018FA6100237B613B616368F2
:102B34001E00D6400E4004D19140194361600760E5
:102B44001CE000681F2A01D1290006E0192152085F
:102B54008A1A2900914000E01000426807239A4332
:102B6400AA420FD0CA0F92008318103349001A6882
:102B7400002AF1D121698B4211D31F60B861FF6033
:102B8400BF600EE081682269904208D3914206D367
:102B9400CF608760B960F8600020B86101E000F0A0
:102BA4009FFA0098083002E000F09AFA002005B07D
:102BB400F0BD000000C0FFFFF2B586B004006168FC
:102BC40048420840401E010B10221140C8404209EF
:102BD40008231A40D040830804252B40D8404508D8
:102BE40002263540E8408607F60F8918C9184919A6
:102BF4008919F0400818800020189821490040588D
:102C04000700416807229143069A8D1A09E00800DB
:102C1400416807229143069A891AA94201D20D00FC
:102C2400070001690029F2D140690028F0D1206928
:102C3400874200D2D3E0A81801907868072188431E
:102C44000199884201D000F04BFA06983818049094
:102C5400874200D3C3E0B8690090FE68BE420CD03E
:102C6400B8682169884225D3C168B94222D1B168C4
:102C7400B9421FD1C660B0601EE038001430066847
:102C8400002E07D1380010300668002E14D001E061
:102C940008000668310014310A68002AF8D13100AE
:102CA40010310A68002AF3D12169884202D3002135
:102CB400016001E000F014FA009800283DD0F869A2
:102CC4008000201898214900401801688F4209D1DA
:102CD4000660002E14D160680121FA69914088438E
:102CE40060602AE000982169884207D30069B842ED
:102CF400009801D1066103E0466101E000F0F0F9BB
:102D0400002E1AD02069864215D30098B061386924
:102D1400002807D02169884202D33061866101E02E
:102D240000F0DEF97869002807D02169884202D3CF
:102D34007061866101E000F0D3F90320102D09D2FF
:102D440001990843786001983818416801220A43C0
:102D5400426041E0069908437860012028430499C1
:102D6400486004984551A0680090C608202E01D3FD
:102D740000F0B6F9009800282BD060690390019602
:102D8400F00020182830029006460098102801D23E
:102D940000F0A6F9206801990200CA40D10705D4C1
:102DA4000121019A91400143216008E00298806862
:102DB4002169884201D3060001E000F091F90398EB
:102DC400029988600398F0600398866002980399DA
:102DD400C860A560049860613800083002E000F023
:102DE4007FF9002007B0F0BDF0B587B0040000BF44
:102DF40000BFBA4DF52C00D325E10B2C01D21024D1
:102E040002E00B3407208443E0080090286800990E
:102E1400C840032738424DD0012601228243881836
:102E24000090C00028182830029084680098C000E0
:102E340003906068072188430399884201D000F019
:102E44004FF9A06801900298844201D100F048F93A
:102E54000198844201D100F043F960680721884356
:102E64000399884201D000F03BF902980199884205
:102E740006D12968009A01209040814329600FE01F
:102E840008462969884209D3C068A04206D101983E
:102E94000299886002980199C86001E000F020F965
:102EA4000398074367600398201841680E434660FF
:102EB400260007E1A968A14200D3D7E0002800D189
:102EC400B7E00126009901228A405100009A9040FF
:102ED4004A420A43024051421140491E080B102243
:102EE4001040C1404A0908231A400092D1408A0880
:102EF40004231A400192D1404A0802231A40029244
:102F0400D1404A083240009BC018019BC018029B64
:102F1400C0188018D14040180390C00028182830E9
:102F24000090806804900398C00002900498406860
:102F3400072188430299884201D000F0D1F804980F
:102F44008068019004980099884201D100F0C8F883
:102F540004980199884201D100F0C2F804984068AD
:102F6400072188430299884201D000F0B9F80098FB
:102F74000199884206D12968039A0120904081432F
:102F8400296010E00846296988420AD3C068049978
:102F9400884206D101980099886000980199C86018
:102FA40001E000F09DF80298001B03902743049869
:102FB40047600498001905900398304305994860C8
:102FC400039805990850A8680090C408202C01D3E0
:102FD40000F086F80098002825D0686902900194D2
:102FE400E0002F1828373C000098102801D200F088
:102FF40077F8286801990200CA40324003D18E4014
:1030040006432E6007E0B8682969884201D30400AA
:1030140001E000F065F80298B8600298E060029858
:1030240084600298C7600398A86005986861049E4C
:1030340048E06868002836D021002800FFF7BCFD6E
:10304400060013D045E03F20C043844202D300244D
:10305400E4430BE00B34072084436868002805D060
:1030640021002800FFF7C0FB060032D1A968A14265
:1030740019D30A1B686901260327102A08D30119EA
:103084006961AA6016434E608A502743476008E08E
:103094000022AA606A610F43476041184A681643D8
:1030A4004E6006000EE0E86884420DD2001BE86022
:1030B400A9690A19AA610123034353600320204329
:1030C40048600E00083604E021002800FFF792F95A
:1030D400060000BF00BF300007B0F0BD4020002054
:1030E40080B5012000F046F801BD000007490868DA
:1030F400002801D00020704705480722904308604B
:1031040004499143091A0160704700BF90300020C0
:103114004710002040200020124207D08B0706D021
:103124000B78491C0370401C521EF7D87047830764
:1031340006D00B78491C0370401C521EF9D170470D
:1031440070B4103A03D378C9103A78C0FBD253074D
:1031540001D318C918C001D508C908C0D20704D3BF
:103164000B880380891C801C002A01D50B7803700E
:1031740070BC704780B500BF00BF024A1100182020
:10318400ABBEFBE72600020010B582B09B4800F0FE
:103194004FFF9B4901F038F804009A49974801F021
:1031A40033F8030000949848427C9748817C974800
:1031B40001F014F99649914801F026F80400954964
:1031C4008E4801F021F8030000948F48827D8E48D8
:1031D400417DC44801F002F913BD80B58E4801F069
:1031E400E8FB8E498C4801F011FC8B498C488068BF
:1031F40001F08CFD009088498948806801F0EBFD5E
:10320400002801D0012000E0002000900028F2D125
:10321400422322228049794800F022FF0C2177487A
:1032240000F0AFFF754801F06FFEAF49734800F03E
:10323400EBFF012101F0CCFEAC49704800F0E4FF43
:10324400012101F0C5FE77496C4800F0DDFF012142
:1032540001F0BEFE7449694800F0D6FF012101F077
:10326400B7FE80218903654800F0CEFF012101F0FB
:10327400AFFE6E49614800F0C7FF012101F0A8FECE
:103284006B495E4800F0C0FF012101F0A1FE98499E
:103294005A4800F0B9FF012101F09AFE58495748F5
:1032A40000F0B2FF012101F093FE5949534800F0A8
:1032B400ABFF012101F08CFE8E49504800F0A4FFC1
:1032C400012101F085FE8C494C4800F09DFF01214D
:1032D40001F07EFE8949494800F096FF012101F082
:1032E40077FE8749454800F08FFF012101F070FE09
:1032F4008449424800F088FF012101F069FE8249B7
:103304003E4800F081FF012101F062FE7F493B4805
:1033140000F07AFF012101F05BFE7D49374800F09F
:1033240073FF012101F054FE7A49344800F06CFF28
:10333400012101F04DFE8021C903304800F064FFF3
:10334400012101F045FE2F492C4800F05DFF0121C9
:1033540001F03EFE2F49294800F056FF012101F0FB
:1033640037FE6D49254800F04FFF012101F030FE82
:103374006A49224800F048FF012101F029FE204952
:103384001E4800F041FF012101F043FE1D491B4886
:1033940000F03AFF012101F03CFE1D49174800F0FE
:1033A40033FF012101F035FE1A49144800F02CFFC7
:1033B400012101F02EFE4C49784800F025FF01213F
:1033C40001F027FE4949754800F01EFF012101F074
:1033D40020FE01BD80B50D4801F0BCF801F0EAFF04
:1033E4009C480068401C9B49086001BD80B580482A
:1033F40001F0B0F801F0DEFF01BD0000742F0020E1
:103404000900200004004000149D0000D02D00207D
:103414000B0020000500400050230020A08601007E
:103424001C9800000C0020000E0020000200200068
:103434000400200010B582B059496E48806802F03B
:103444004EF85849554800F0DFFE040056495348E9
:1034540000F0DAFE009403005448427C5348817C17
:10346400654801F06FF852494C4800F0CDFE040065
:1034740062494A4800F0C8FE009403004B48827D2C
:103484004A48417D174801F05DF85B4801F066F851
:10349400144801F063F8584801F05CF8584901F009
:1034A400E9FE104801F056F8564901F0E3FE56498A
:1034B4005048806802F013F8674879490C22FFF7F6
:1034C4002BFE664876490C22FFF726FE64487449B1
:1034D4000C22FFF721FE634871490C22FFF71CFE02
:1034E40013BD0000582E0020080020000A00200010
:1034F400060020000D0020000F0020000100200025
:103504000300200005002000070020000300400005
:103514000200400001004000060040000700400097
:1035240038B50024062C19DA082002F097F8002890
:103534000DD08B4B8B490422624389188A788949C0
:10354400042565434919497802F09DF800E00020FC
:103554008849042262438850641CE3E731BD00209B
:103564008149824A03C2083A00208349804A03C23F
:10357400083A00208149824A03C2083A002081495E
:10358400814A03C2083A00207B49804A03C2083AB0
:1035940000207A49B04A03C2083A7047742F0020C9
:1035A400089E00000900200004004000149D000053
:1035B4000B00200010B50024082C17DA102002F0AC
:1035C4004DF800280BD07249042262438A5871498D
:1035D40003236343C918497802F0A4F800E00020EB
:1035E4009E49042262438850641CE5E710BD000034
:1035F400582E00201C980000D02D0020050040000B
:10360400D9330000F1330000B89D000010B586B036
:1036140003A861491CC91CC00C390C386846904980
:103624001CC91CC00C390C380B4803A90C22FFF729
:1036340073FD0A4869460C22FFF76EFD084803A98A
:103644000C22FFF769FD074869460C22FFF764FD69
:1036540006B010BD58300020442D0020502D00200D
:103664005C2D0020682D002010B50024082C09DAF8
:1036740001217C48042262438018407801F0A8FCB0
:10368400641CF3E70024082C09DA0121754804229C
:1036940062438018407801F0BCFC641CF3E710BD61
:1036A40024300020F8B5E12149026F4880686E4A51
:1036B40092681268D269904701213F2001F088FC8A
:1036C40001213F2001F0A5FC68496748806801F0AA
:1036D40076FFFFF744FFFFF780FDFFF721FFFFF7B9
:1036E400C3FFFFF767FF624803C8624A0CCA02F0CF
:1036F4008EF804000D005E4803C85E4A0CCA02F04E
:1037040086F822002B0002F0F9F804000D00174897
:1037140003C81D4A0CCA02F07AF806000F001348C9
:1037240003C8194A0CCA02F072F832003B0002F0D6
:10373400E5F822002B0002F007F802F0A1F94E4A46
:1037440003C2083AFFF776FE4C494748806801F007
:1037540036FF02F0F8F94A490860FFF757FFF1BD58
:10376400204E0000A09D000000005940802D002044
:10377400902D0020D42F0020000051400000244050
:10378400982D0020000059C0A82D0020B82D00203D
:10379400D49C0000889D0000449E000010B51320B6
:1037A40000280AD43849042242438958364A04235B
:1037B4004343D2185160401EF2E700241C213348D1
:1037C40004226243805801F0A0FF2E490222624382
:1037D40089181822895E0A2250434008081829498A
:1037E4000222624389180883264802216143401853
:1037F4001821405E24490860022004001C2123484B
:1038040004226243805801F080FF1E490222624371
:1038140089181822895E0A22504340080818194959
:1038240002225443091908830024062C0FDA154890
:103834000221614340181821405E022102F0E8F998
:1038440010490222624389180883641CEDE702F0E0
:103854007AF90C49486110BDC02D0020B42F002016
:10386400509E0000F49C00001C980000BC9E0000C8
:10387400782D0020A02D002040300020389E00002C
:103884005C300020C82C0020E02E0020D42F002023
:1038940038B5FFF783FF1A481821405E642804DB1B
:1038A40017481C21405E642826DA164800F0F2FC12
:1038B4000400124800F0EEFC0500124800F0CAFEB5
:1038C4000E4800F0C7FE00F0F3FA0D481821405EE0
:1038D400642804DB0A481C21405E642802DAFFF7EE
:1038E4005DFFF2E700F0E4FA2100064800F0D8FC9E
:1038F4002900024800F0D4FC31BD0000582E0020FD
:10390400C82C0020D02D0020F3B585B0059802F016
:10391400D9F93CA20CCA02F0EFF902F04FFA070001
:10392400069802F0CFF90022384B01F0E7FF00229D
:10393400374B01F009FF02F041FA0400824800F01D
:1039440009FE01F01FFC019004907E4800F002FE85
:1039540001F018FC0090039002F0F5F80500210036
:10396400794800F09DFC2100764800F099FC01980C
:10397400009940180499401A0399401A012807DB5A
:103984000198009940180499401A0399401A06E0D6
:1039940003980199401A0099401A04994018022189
:1039A4007943012902DB0221794302E00121C94361
:1039B4007943884214DA644800F0FAFE614800F062
:1039C400F7FEFFF765FF604800F0C4FD01F0DAFB85
:1039D40001905C4800F0BEFD01F0D4FB0090C6E706
:1039E40002F0B1F80600701B0290574800F032FE56
:1039F400544800F02FFE701B02900298029007B00A
:103A0400F0BD0000D9899DD8899DF03F0000F03FAA
:103A140000005940F3B587B0089802F053F900222A
:103A24004A4B01F06BFF0022494B01F08DFE02F07E
:103A3400C5F9060002F087F80590434800F08AFDB6
:103A440001F0A0FB039001903E4800F083FD01F0DB
:103A540099FB02900090774204960798002802D5BB
:103A6400370070420490079802F02CF939A20CCA6E
:103A740001F044FF0022394B02F03EF9002280237A
:103A8400DB0501F03BFF02F099F90400200002F08D
:103A940019F933A20CCA02F02FF902F08FF90400CD
:103AA40001980399401A0099401A0299451826482A
:103AB40000F050FD01F066FB0390224800F04AFD3F
:103AC40001F060FB029039001F4800F0E9FB049903
:103AD4001C4800F0E5FB012D01DB280000E06842F2
:103AE400012C01DB210000E0614288421CDA164807
:103AF40000F05EFE134800F05BFEFFF7C9FE01987C
:103B04000399401A0099401A0299401805000E487A
:103B140000F020FD01F036FB01900A4800F01AFD88
:103B240001F030FB0090D6E7074800F093FD05480C
:103B340000F090FD02F007F80599411A069109B0CA
:103B4400F0BD0000582E0020D02D00200000F03FD2
:103B5400000059409A99999999798B400080764050
:103B6400D9899DD8899DF03FF2B588B0070008989F
:103B740002F0A8F80022C34B01F0C0FE0022C24BA1
:103B840001F0E2FD02F01AF9060001F0DCFF0690F4
:103B94003000022102F03CF8801905903000022127
:103BA40002F036F80490002F0AD53000022102F00A
:103BB4002FF8801904903000022102F029F80590B2
:103BC400380002F07FF8B1A20CCA01F097FE00227F
:103BD400B04B02F091F800228023DB0501F08EFE49
:103BE40002F0ECF80400200002F06CF8AAA20CCA5F
:103BF40002F082F802F0E2F804002C4800F0AAFC7B
:103C040001F0C0FA03900190A64800F0A3FC01F073
:103C1400B9FA0290009001980399401A0099401A49
:103C2400029945180599214800F03AFB04999D48EA
:103C340000F036FB012D01DB280000E06842012C76
:103C440001DB210000E06142884227DA002F08D519
:103C540001980399401A0099401A029940180500E6
:103C640007E000980299401A0199401A03994018F4
:103C740005000E4800F09CFD8A4800F099FDFFF70E
:103C840007FE0A4800F066FC01F07CFA01908548C2
:103C940000F060FC01F076FA0090CBE7034800F0F6
:103CA400D9FC804800F0D6FC09B0F0BDD02D00202E
:103CB400F1B586B07A48006802F004F876A20CCA1E
:103CC40002F01AF802F07AF805907848006801F0DA
:103CD400F9FF00226B4B01F011FE00226A4B01F048
:103CE40033FD02F06BF8040001F02DFF07006E486D
:103CF40000F0B0FC6B4800F0ADFC6B4800F02AFC0F
:103D040001F040FA03900190664800F023FC01F0B2
:103D140039FA0290009006984F2809D121003231D7
:103D2400614800F0BDFA21005E4800F0B9FA08E0ED
:103D340021005D4800F0B4FA21003231594800F006
:103D4400AFFA0198009940180399401A0299401A51
:103D5400012807DB0198009940180399401A029939
:103D6400401A06E002980199401A0099401A0399F2
:103D74004018059902225143884212DA4A4800F059
:103D840017FD484800F014FD474800F0E3FB01F03C
:103D9400F9F90190434800F0DDFB01F0F3F90090DC
:103DA400CFE701F0D0FE06003F4800F053FC3D4849
:103DB40000F050FCF01B04900498049050250698E1
:103DC4004F2802D15920C04305009620400001F03D
:103DD400EAFE364801682800FFF7C6FE334801684A
:103DE400C8208000FFF790FD9620400001F0DBFE24
:103DF4002E4801686842FFF70DFE9620400001F04E
:103E0400D2FE2A480168FA204000FFF77DFD962083
:103E1400400001F0C8FE254801686842FFF7FAFD3A
:103E24009620400001F0BFFE20480168C8208000B1
:103E3400FFF76AFD9620400001F0B5FE1B480068BC
:103E440041426320C043FFF75FFD9620400001F02C
:103E5400AAFE1648006841426320C043FFF754FDA0
:103E64009620400001F09FFE104800684142632004
:103E7400C043FFF749FD9620400001F094FE07B0CF
:103E8400F0BD00000000F03F000059409A99999954
:103E940099798B4000807640D9899DD8899DF03FDF
:103EA40000000020582E0020D02D00200400002007
:103EB40080B501F048FE59490968401A00900098FD
:103EC400574901F0A5FE009000985B2800DBFEE74F
:103ED40001BD80B59620400001F065FE01F033FE7F
:103EE4004E49086002214F48407801F071F80221E0
:103EF4004C48807801F06CF8642001F054FE494885
:103F0400407801F00EF9012827D14648807801F065
:103F140008F9002810D101213F2001F059F80121AE
:103F24003F2001F076F80121402001F051F80121F1
:103F3400402001F06EF847E001213F2001F048F8ED
:103F440000213F2001F065F80121402001F040F8F4
:103F54000021402001F05DF836E03248407801F05D
:103F6400E0F80028F9D0642001F01DFE2D484078C7
:103F740001F0D7F8012827D12A48807801F0D1F838
:103F8400002810D101213F2001F022F801213F2017
:103F940001F03FF80121402001F01AF801214020EE
:103FA40001F037F8E2E701213F2001F011F8002188
:103FB4003F2001F02EF80121402001F009F80021F2
:103FC400402001F026F8D1E71648807801F0A9F8DE
:103FD400002803D15620FFF76BFE02E04F20FFF7C5
:103FE40067FE01F0B0FD0D490968401A0090009881
:103FF4000B4901F00DFE0090FEE780B501F0A0FD35
:104004000A2101F008FE002905D0074800F0D0FB82
:10401400064800F0CDFB002002BD00006030002007
:1040240040420F00149D0000D02D0020582E002087
:1040340038B50400200000F061FF2548206020000E
:10404400103001F0F7FE1C21002225002435280041
:1040540002F04CF92000243002F070F9200032BD47
:10406400F8B505000E0017003A00D2B2310028005E
:10407400243002F07AF968460278310028001030C2
:1040840001F0E3FE0024102C0EDA20000100C9B276
:104094002800243000F08EFF010001222800243083
:1040A40002F082F9641CEEE70024102C0EDA2000E2
:1040B4000100C9B22800243000F07CFF0022010076
:1040C4002800243002F0B5F9641CEEE7F1BD0000CD
:1040D4007899000038B505000C0021002800103044
:1040E40001F04EFF002805D021002800103001F017
:1040F40051FF17E021002800243002F07EFA002846
:1041040005D021002800243002F04DFA0AE0E868C6
:10411400002806D02100E868EA681268126A90470D
:1041240000E0002032BD70B504000D001600290027
:104134002000103001F024FF002807D03200D2B252
:1041440029002000103001F03DFF19E02900200073
:10415400243002F052FA002807D03200D2B22900EB
:104164002000243002F020F90AE0E068002807D09B
:104174003200D2B22900E068E3681B689B69984763
:1041840070BD38B505000C0021002800103001F086
:104194005AFF21002800243002F09BF9E868002827
:1041A40006D02100E868EA681268926A9047FFE73F
:1041B40031BD70B504000D00160029002000103038
:1041C40001F0DEFE002806D0320029002000103065
:1041D40001F048FF17E029002000243002F00DFA16
:1041E400002806D0320029002000243002F080F993
:1041F40009E0E068002806D032002900E068E3689E
:104204001B685B6A984770BD38B504000D006802EE
:1042140006D52900C9B22000103000F0CBFE09E019
:10422400A80206D52900C9B22000243000F0C2FE3D
:1042340000E0FE2032BD70B504000D001600290018
:104244002000103001F09CFE002807D03200D2B2CA
:1042540029002000103001F042FF19E0290020005D
:10426400243002F0CAF9002807D03200D2B2290063
:104274002000243002F0DDF80AE0E068002807D0CE
:104284003200D2B22900E068E3681B68DB69984712
:1042940070BD000080B5103003C801F08FFD02BD71
:1042A40038B504000D00012060216054280001F09D
:1042B40009FDA064E164A06CE16C220010320CCA18
:1042C40001F0A5FA002280235B0302F014FA21D83E
:1042D400A06CE16C220010320CCA01F098FA0200C2
:1042E4000B00206C616C02F01FFA02D2206C616C2E
:1042F40006E0A06CE16C220010320CCA01F087FACF
:10430400220010320CCA01F01FFA2200103203C23C
:10431400083A22E02000103003C8A26CE36C01F0DC
:1043240076FA02000B00206C616C02F0FDF902D2F7
:10433400226C636C08E02000103003C8A26CE36CAC
:1043440001F065FA02000B002000103003C801F0F0
:104354005EFA2200103203C2083A31BD38B50400B7
:104364000D00EDB2002D05D0206D02F045FC842136
:10437400605404E08420215C206D02F0DCFB31BD3C
:1043840010B504006120205C00281CD1A06FE16FEF
:104394002200203203C2083A226F636F606D02F07C
:1043A40035FFA26EE36E606D02F02AFF8020215873
:1043B400606D02F030FF01212000FFF7CFFF0120E4
:1043C4006121605409E0606D02F040FC002061212D
:1043D400605400212000FFF7C1FF10BDFCB587B079
:1043E40004000D000E9F002094492200283203C2CD
:1043F400083A002092492200303203C2083A91A0C0
:1044040003C82200383203C2083A012085216054CF
:104414000020C0438621605400208D4920646164DB
:10442400002000212200103203C2083A00208749EC
:104434002200183203C2083A002000212200203250
:1044440003C2083A782001F009F90600002E1AD0B8
:10445400002006902000383003C804900591200005
:10446400303003C8029003912000283003C8009024
:104474000191230010332200203221001831300032
:1044840002F06CF900E000202065FC20800001F0BF
:10449400E5F8002806D0220020322100183102F06D
:1044A400AFFB00E000206065002061216054002023
:1044B4006021605400206649A066E16600206349DB
:1044C400206761670020AD49A067E167142080215F
:1044D40060500020E065022084216054E06D0028D3
:1044E40027D0A749E06D00F0FAFF0A222900E06D09
:1044F40001F007F8A3A1E06D00F0F1FF0A22290002
:10450400E06D00F0FEFF9FA1E06D00F0E8FF0A22DD
:104514000899E06D00F0F5FF9AA1E06D00F0DFFF6F
:104524000A223900E06D00F0ECFF9749E06D00F0DD
:10453400D6FF2560079860600898A060E7602000B7
:1045440009B0F0BD10B4019C016042608360C46096
:1045540010BC7047806D7047006D70471CB5040037
:10456400E06D002827D08949E06D00F0B8FF0A22E9
:104574002168E06D00F0C5FF82A1E06D00F0AFFF9F
:104584000A226168E06D00F0BCFF7EA1E06D00F0DE
:10459400A6FF0A22A168E06D00F0B3FF79A1E06DE7
:1045A40000F09DFF0A22E168E06D00F0AAFF764961
:1045B400E06D00F094FF0121A06800F009FD0121E5
:1045C400E06800F005FD0021A06800F022FD002154
:1045D400E06800F01EFD202001F040F8002807D01C
:1045E4000021009101236268216800F006FE00E0CA
:1045F4000020A0650021206D02F09DFA002064498E
:10460400009001910022634B206D02F04DFA0A21C3
:10461400206D02F01CFA0121206D02F08CFA612059
:10462400205C002808D00020612160542000FFF79E
:10463400A7FE01206121605413BD00000000344036
:1046440000003E40FCA9F1D24D62403F0000F03F23
:104654000000494010B5040000200021220010325F
:1046640003C2083A2000103003C8A064E1640020AB
:1046740000212200203203C2083A2000203003C85F
:104684002200183203C2083A00206021605400213D
:10469400200000F00BF82000FFF75CFF00F077FD2E
:1046A4002000FFF759FF02F05BFA10BD38B5050092
:1046B4000C00200001F006FB2A00203203C2083A55
:1046C4003548844202DB80246401FFE73348844296
:1046D40001DA324CFFE7002C15D172B60021E868EC
:1046E40000F097FC0121A86800F072FC0021A86882
:1046F40000F08FFC62B6E86D00283DD02849E86DD3
:1047040000F0EDFE38E0012C1ADB72B60021E868F7
:1047140000F07FFC2100A86802F04CFE62B6E86D50
:10472400002829D01F49E86D00F0D9FE0A22210093
:10473400E86D00F0E6FE1CA1E86D00F0D0FE1BE081
:1047440072B60121E86800F064FC80204001211861
:10475400A86802F02FFE62B6E86D00280CD0134959
:10476400E86D00F0BCFE0A222100E86D00F0C9FEED
:104774000DA1E86D00F0B3FE31BD0000000059400A
:10478400749E00002C000000CC9E0000189E0000C7
:104794008087CB400088CBC00110000000F0FFFFF1
:1047A400809E00008C9E0000200D0A00989E000050
:1047B400F0B585B004006020205C002800D1B3E08F
:1047C400A26CE36C2000103003C802F04BFF51D000
:1047D400A06CE16C220010320CCA01F018F800221F
:1047E40080235B0301F087FF21D8A06CE16C2200D9
:1047F40010320CCA01F00BF802000B00206C616C43
:1048040001F092FF02D2206C616C06E0A06CE16CB6
:10481400220010320CCA00F0FAFF220010320CCA37
:1048240000F092FF2200103203C2083A22E0200076
:10483400103003C8A26CE36C00F0E9FF02000B0027
:10484400206C616C01F070FF02D2226C636C08E092
:104854002000103003C8A26CE36C00F0D8FF020003
:104864000B002000103003C800F0D1FF22001032EA
:1048740003C2083A2000FFF76DFE00F08BFC07002E
:10488400380001F01FFA2200183203C2083A002649
:104894006120205C002838D0606D02F0DBF905004F
:1048A400EDB2002D02D00020612160546120205C13
:1048B40000282ED1606D02F02EFC2200283203C2A3
:1048C400083A606D02F03FFC2200303203C2083A1D
:1048D400606D02F05DFC2200383203C2083A200009
:1048E400383003C8029003912000303003C8009090
:1048F4000191200028300CC80838206D02F090F88F
:1049040000212000FFF72AFD03E0206D01F05BFF8A
:104914000600002E08D02000203003C801F04EFA13
:1049240001002000FFF7C2FE05B0F0BD80B54F23A3
:1049340050222E492E4800F00DF8342333222D49FD
:104944002D4800F007F8552354222C492C4800F038
:1049540001F801BDF8B504000F0015001E00200089
:1049640002F092FE2748206020001C3002F092FEE4
:104974002000A43002F08EFE676125766676002062
:10498400A076002020742000F2BD10B50400207C25
:10499400002801D1207C0BE0606902F026FF401062
:1049A4008007800F022801D1012000E00020C0B25E
:1049B40010BD10B504000221207E00F009FB022185
:1049C400607E00F005FB0D21207E03F041FA0D21ED
:1049D400607E03F03DFA0C49606903F03EF86069BB
:1049E40003F00EF80120207410BD00006830002090
:1049F4001822002074300020502300206C30002046
:104A040088240020349C0000A086010038B50500ED
:104A14000C00686903F012F82100686903F01DF8BE
:104A2400686902F0EDFF31BDF8B505000F0016000E
:104A3400002E01D1002038E0002428001C3002F0B0
:104A440049FE01223900C9B2686903F07DF80028E3
:104A540029D0686903F05EF90100C9B228001C304E
:104A640002F026FE01200400B44211D2686903F06A
:104A740024F80221686903F035F8686903F04AF9FB
:104A84000100C9B228001C3002F012FE641CEBE7DE
:104A9400686902F0FBFF68460078002803D0032110
:104AA400686903F01FF82000C0B2F2BD70B50400BD
:104AB4000E00150001232A003100C9B22000FFF7BF
:104AC400B3FF70BD38B505000C00962040002C548F
:104AD4002800A43002F0FEFD0120A87631BD38B5CF
:104AE40004000D000020A076002296204000215CE6
:104AF400606903F029F8002805D10321606902F0F8
:104B0400F1FF02201EE02000A43002F002FE002883
:104B140010D02000A43002F0E4FD0100C9B26069A5
:104B240003F05BF80028EED10321606902F0DAFF9C
:104B3400032007E0EDB2002D03D00321606902F0E9
:104B4400D1FF002032BD10B5040001212000FFF781
:104B5400C6FF10BD38B505000C00A87E002805D09E
:104B64002800A43002F0E6FD002801D0002006E071
:104B74002100C9B22800A43002F09AFD012032BD00
:104B8400F8B504000E0017000025BD420AD2715D7D
:104B94002000226812689047002801D1280002E012
:104BA4006D1CF2E73800F2BD10B5040020001C3083
:104BB40002F0AFFD10BD10B5040020001C3002F05F
:104BC40090FD10BD38B50500686903F050F8002861
:104BD40000D184E0686903F07CF800280ED168698C
:104BE40003F086F8002822D0686903F078F80028DA
:104BF4001DD0686903F085F8002818D1686902F0AF
:104C04005CFF0321686902F06DFF9A204000285878
:104C1400002807D028002968096988479A21490093
:104C24006958884728001C3002F054FD57E0686931
:104C340003F05EF800281BD0686902F03EFF0321F0
:104C4400686902F04FFF686903F05BF8002846D0FA
:104C54002800A43002F03EFD0120A87698204000F0
:104C6400285800283BD0982040002858804736E038
:104C7400686903F025F8002831D0686903F041F829
:104C8400002812D0FF242800A43002F042FD00289E
:104C940004D02800A43002F024FD04002100C9B28D
:104CA400686902F0BCFFA87619E028001C3002F005
:104CB40041FD002803D0686902F0E8FE0BE0686952
:104CC40003F028F80100C9B228001C3002F0F0FCFF
:104CD400686902F0F2FE0321686902F003FF31BD46
:104CE40080B50748FFF76EFF01BD80B50548FFF7A3
:104CF40069FF01BD80B50448FFF764FF01BD0000F2
:104D040018220020502300208824002038B50500F4
:104D14000C002000FFF74DFE0120714908602100BE
:104D2400280000F058F832BD70B504000D00694940
:104D3400200000F044FC6A480068F821C901884258
:104D440047DA67480068C0110100C9B22800FFF7BC
:104D5400B9FE634800784106490E280003F082FA40
:104D64002800FFF7F0FE0600F6B2002E16D15A49CD
:104D7400200000F0B4FB102259480168200000F024
:104D8400C0FB56A1200000F01AFC55480068401CE6
:104D94005349086052480068401E1BE0F6B2042ED6
:104DA40011D15049200000F09AFB4D4800681028AA
:104DB40003DA4DA1200000F092FB1022484801685C
:104DC400200000F00BFC46480068401C4449086081
:104DD400B1E7002070BDF8B504000D00404800683C
:104DE400F021C901884204DB29002000FFF79CFF61
:104DF4006EE0002007003A4800687F2867DA3848E8
:104E040000680100C9B22800FFF75CFE2800FFF724
:104E14009AFE0600F6B2002E3ED12F49200000F083
:104E24005EFB2F480068102803DA2FA1200000F051
:104E340056FB10222A480168200000F062FB27A1DB
:104E4400200000F0BCFB26480068002803D1274955
:104E5400200000F0B4FB22480068012803D1244953
:104E6400200000F0ACFB1E480068022803D1214951
:104E7400200000F0A4FB1A480068032803D11E494F
:104E8400200000F09CFB16480068401C1449086090
:104E940013480068401E1BE0F6B2042E11D11149DC
:104EA400200000F01CFB0E480068102803DA0EA155
:104EB400200000F014FB102209480168200000F0D3
:104EC4008DFB07480068401C0549086093E70020F3
:104ED400F2BD0000689E0000889B00002020210095
:104EE40080300020B49B000030000000F8980000DF
:104EF4006C9D0000949A0000DC9B000010B5040037
:104F0400200000F04AF810BD28490860704738B501
:104F140005000C0025480068002809D02200D2B200
:104F2400290022480068214B1B681B68DB699847ED
:104F340031BD38B504000D001C480068002808D0B5
:104F44002A00210019480068184B1B681B685B6A1B
:104F5400984731BD10B5040014480068002808D0F3
:104F6400210012480068114A12681268126A9047B8
:104F740000E0002010BD38B505000C000B480068A7
:104F8400002809D02200D2B2290008480068074B43
:104F94001B681B689B69984731BD05490160002166
:104FA4000171002181600021C160704764300020DC
:104FB400C49800000200080011790904C0B2084333
:104FC4007047704770470200002070477047704771
:104FD40038B504000D00642C06D269480C216143E5
:104FE40040188078FF2804D129002000FFF7C3FF70
:104FF4000EE0042D08D10121200002F029FF002138
:10500400200000F006F803E02900200002F020FF51
:1050140031BDF2B582B00400642C06D258480C218C
:10502400614340188078FF2804D102992000FFF7DB
:105034006EFF75E052480C216143401840680090AF
:105044004F480C216143405C4D490C22624389184E
:1050540049788222D205C0B280234343D218C9B210
:1050640052184023D55C8222D205C0B28023434328
:10507400D258002A05D001228A40002A01D00122F8
:1050840000E000228223DB05C0B2802646439B1940
:105094001B69002B05D001238B40002B01D0012379
:1050A40000E00023D2B2002A20D1029E012E0FD1AB
:1050B400DBB2012B02D1009E760705D4DBB2002BB4
:1050C40009D1009E360706D52E000425354302E09B
:1050D4002E00FB2535408226F605C0B280274743C3
:1050E400F619C9B276184027F55519E0029E012E2B
:1050F4000BD101278F40BC468227FF05C0B2802612
:105104004643BE196746B7610AE001278F40BC4693
:105114008227FF05C0B280264643BE1967467761E1
:10512400F7BD10B50400642C06D215480C21614368
:1051340040188078FF2803D12000FFF70BFF1DE003
:105144000F480C21614340188078FF2801D10020CA
:1051540014E08220C0050A490C226243895C802243
:1051640051434018006A06490C2262438918497861
:10517400C840C00701D5012000E0002010BD000098
:10518400A8890000010072B6086862B67047002161
:1051940081617047FEB5040072B6A0690090009862
:1051A400002801D1002021E0E069019000F0CBFC4F
:1051B400050062B60098012801DB012701E0002701
:1051C400FF430198281A02907748009900F020FDC7
:1051D4000600029938007043814206DB7248019947
:1051E400691A00F018FD784300900098FEBD72B66D
:1051F40001600268826062B67047F8B504000F006F
:105204001600069D00F09FFCE06138002075300018
:105214006075002060606068002817D0634960688A
:1052240000F05DF90A2214202156606800F069F943
:105234005FA1606800F053F90A22152021566068C6
:1052440000F05FF99149606800F049F900212000FD
:10525400FFF7CDFF68460078A07525610221142070
:105264002056FFF7B5FE022115202056FFF7B0FEA9
:105274002000F2BD13B504006068002836D08449CC
:10528400606800F02CF90A2214202156606800F0AE
:1052940038F980A1606800F022F91420205603F048
:1052A40069F80A220100606800F02BF940A16068E7
:1052B40000F015F90A2215202156606800F021F942
:1052C40074A1606800F00BF91520205603F052F821
:1052D40001000A22606800F014F96F49606800F068
:1052E400FEF80A2201A9606800F015F9162020567C
:1052F400002833D16068002803D06849606800F052
:10530400EEF81420205603F035F8FF2808D01420B6
:10531400205603F02FF80222019903F03DF806E02D
:105324006068002803D05E49606800F0D8F8152052
:10533400205603F01FF8FF2808D01520205603F04C
:1053440019F80222019903F027F82BE0606800287D
:1053540028D05449606800F0C2F823E0606800284F
:1053640003D05149606800F0BAF81420205603F0C5
:1053740001F8FF2808D01420205602F0FBFF042275
:10538400019903F009F806E06068002803D0444955
:10539400606800F0A4F86068002803D043A1606846
:1053A40000F09DF813BD000040420F00A49E0000D1
:1053B4002C000000F8B5040000F0C5FB0700002530
:1053C40016202056002843D1207B8607B60F1420D0
:1053D4002056FFF7A6FE002802D03000042606431C
:1053E40015202056FFF79DFE002802D03000082625
:1053F4000643F6B23000002818D0401E17D0401ED5
:1054040018D0401E1AD0401E14D0401E0ED0801E4C
:1054140001280CD9C01E09D0401E0BD0401E0DD04F
:10542400401E07D0401E02D0401E0AD10BE00120CE
:10543400050008E00020C043050004E00220050048
:1054440001E0022005003000C0B2800820730BE0A8
:1054540015202056FFF765FE012802D10120050022
:1054640002E00020C043050020686DB240192060AE
:10547400E069381A002807D06DB20D48E169791A3D
:1054840000F0C9FB6843A061E761F1BDD49E000050
:10549400E09D00003A000000DC9E0000289E000011
:1054A400C49A0000F49A0000B09E00000D0A200087
:1054B40040420F00F8B507000C001600002530002C
:1054C400461E002809D0217838003A6812689047AF
:1054D400641C002801D06D1CF1E72800F2BD38B52A
:1054E40005000C002100280003F032F832BD38B565
:1054F40004000D002900C9B22000226812689047F8
:1055040032BD70B504000E0015002A0031002000E1
:1055140000F00BF870BD70B504000E0015002A00F1
:105524003100200000F02FF870BDF8B505000C0024
:105534001600002E07D120000100C9B228002A68F5
:10554400126890471EE00A2E15D1002C0DD52D218E
:105554002800FFF7CCFF0700604204000A22210064
:10556400280000F04CF8C0190CE00A2221002800A1
:1055740000F045F806E030000200D2B22100280015
:1055840000F03DF8F2BD70B504000E001500002DCA
:1055940006D13100C9B2200022681268904706E0A3
:1055A40028000200D2B23100200000F028F870BDBB
:1055B40010B5040028A1200002F0CAFF10BD70B588
:1055C40005000C0021002800FFF789FF06002800D1
:1055D400FFF7EEFF30180600300070BDF8B5040088
:1055E4000F0015002A0039002000FFF78AFF06008B
:1055F4002000FFF7DDFF301806003000F2BDF1B5E2
:105604008AB00C001600684605002035002028707A
:10561400F6B2022E01DA0A2006002000F6B23100AA
:1056240000F0F9FA0F002000F6B2310000F0F3FAAE
:1056340004006D1E280005007FB20A2F01DA3037FE
:1056440000E037370770002CE7D129000A9802F0F0
:105654007FFF0BB0F0BD00000D0A000010B5040080
:105664002000FDF7C1FB10BD18B50400002C09D0C3
:1056740030206043062100F0CEFA0090002801D0CB
:10568400401EFBE711BDF8B504000D0017001E0015
:105694002570677020786178884201D1012000E08C
:1056A4000020A07001212078FFF792FC002160788F
:1056B400FFF78EFC66602000F2BD10B50400A078F0
:1056C400002803D001212078FFF782FC00212078F4
:1056D400FFF79FFC0220FFF7C7FF01212078FFF7A7
:1056E40098FC0A20FFF7C0FF00212078FFF791FC07
:1056F400A078002803D000212078FFF769FC6268B5
:105704000121607802F0A5FF10BD38B504000D003A
:105714002000FFF7D2FFEDB2290000F07CFA400828
:1057240032BD000070B504000D001600A560E660EF
:105734000021A068FFF74CFC0A202060014860604B
:10574400200070BD88130000F0B40125ED070F00A0
:105754005F404FD48B4200D1824205D98446100069
:1057640062468C4619006346DF184C18640D7F0DA1
:105774003AD0661C760537D0E61B352E34DCDB02C6
:105784002B43DB0A0C0DC9022943C912202E0DDB61
:105794001700203E06D01F00F741F3405F4000266B
:1057A400012A7741C01871410DD217E01700F74163
:1057B400F2405740F3415A40B340F3405A40002668
:1057C400801859410AD3A21C52050FD0C207012FD9
:1057D400724117004008CB0718434908641C24058C
:1057E4004208AF4170416141F0BC7047641C21051F
:1057F4000020F9E76B4010E06B40ABE7F742F3D1D0
:10580400E943F1E72442EFD100200021ECE7F0B4B2
:105814000125ED070F005F40EED40C00871A9C4170
:1058240005D2C01BA141D219634169406B40AE0A45
:10583400DF184C18F442E1D2640D7F0DE2D0E61B70
:10584400362ED1DCDB022B43DB0AA4460C0DC90245
:105854002943C90A012E28DC04D1D6075208DF07E0
:105864003A435B08EF0A76429041994114D0394299
:105874003BD1B61940414941761C394204D1761CCA
:10588400001849413942FAD0B9436746B74208D9AA
:10589400A41B24052143A7E70042EAD13642E8D1FC
:1058A400A2E7E40AE10700209EE7202E0BDD203E5C
:1058B4001F00F340F7415F40012A002257417E4216
:1058C400984191410BE01700F741F2405740F341F2
:1058D4005A40B340F3405A407E42904199410A03F2
:1058E40003D2641EB619404149410027641E2405B1
:1058F4004208AE4178416141F0BC7047F0B50E00FA
:105904005E400125ED072E40B446AE0ADF184C1860
:10591400F44208D2F7420ED2640D01D07F0D12D1A9
:1059240000206146F0BD05D1F74201D87F0D05D1B5
:105934000020C143F0BDFBD1640DF9D00020C14368
:10594400490549088FE0E419C902DB0229432B43C6
:10595400DB0A460DC00231438E4630B487B295B29D
:105964007D432E0CADB2140C7C43A419260C2404E4
:1059740025439CB27C43A419190C7943270CC919FB
:10598400A4B20F043C43090C000C97B247432E0CFD
:10599400BE193543ADB2170C4743360CBF19A6B236
:1059A400BF193E043543240C3E0C36199FB24743BD
:1059B400BF19BCB23E0C89191F0C47437F183E0423
:1059C4003443390C704680B297B247432E0CBE194B
:1059D4003543ADB2170C4743360CBF19A6B2BF19F5
:1059E4003E043543240C3E0C36199FB24743BF197D
:1059F400BCB23E0C89191F0C47437F183E04344344
:105A0400390C77463F0C90B278432E0C801906046B
:105A1400ADB22E43050CA0B22D18120C7A435019C6
:105A2400020C80B2240CA4189AB27A4312191404FA
:105A34002043120C89181B0C7B43C91830BCEF0A95
:105A4400394203D1B61940414941641E6F12BF0D5A
:105A5400E41B0BDBFF19BC4211DA240500274208C2
:105A6400AE417841614166463143F0BD641C05D1C5
:105A7400401C6141CF0201D34908F4E750E75DE7D8
:105A8400012252054B1850D2D3424DD25B0D4BD05C
:105A940030B41C05A14355082943D40AE41E1B193C
:105AA4005B0801D3001849411B059C466C19091B6E
:105AB4000018494100184941641900239202491B06
:105AC40007D46D081DD2091B641900184941491BEC
:105AD400F7D56D080AD20919641B00184941491BFE
:105AE400EFD56D08F7D301E0520817D0C018614113
:105AF4009B1AAC4100184941801AA941F4D45208B8
:105B04000AD0C01AA1419B186C4100184941801A5F
:105B1400A941E9D45208F4D15B1C6C415808E2074E
:105B240010436108614430BC70470020590DFBD01C
:105B3400C943D342F8D802B502F0B0FD02BD00005B
:105B4400234800687047F0B5224E36683100224E73
:105B54003668B60E3700FF07FF0F3A001C4E366852
:105B64003300080014001D001A4E366831001A4E26
:105B74003668B60E3700FF07FF0F3A00144E36683A
:105B840033009442EDD19D42EBD18842E9D32C19E4
:105B9400FA25AD006C43114D2D68281A104D684349
:105BA400000D2018F0BD38B50400002C08D00848BA
:105BB400056802F079FD06480068401BA042F8D34E
:105BC40031BD03480068401C01490860704700006B
:105BD4003C30002018E000E004ED00E014E000E0B8
:105BE40055550000F446002804D4494200F013F847
:105BF400404260474042002905D45FD000F00BF8D2
:105C0400404249426047494200F005F84942604732
:105C140003460B43E6D40022030A8B420BD203094A
:105C24008B4219D243088B422ED2411A00D201462C
:105C3400524110467047FF2209023FD012068B42A0
:105C440005D3121209028B4201D31212090203096D
:105C54008B4219D300E0090AC3098B4201D3CB015B
:105C6400C01A524183098B4201D38B01C01A52419D
:105C740043098B4201D34B01C01A524103098B42A1
:105C840001D30B01C01A5241C3088B4201D3CB008C
:105C9400C01A524183088B4201D38B00C01A52416F
:105CA40043088B4201D34B00C01A5241884200D3AF
:105CB400401A5241CFD201461046704708B502F04F
:105CC400F5FC08BD010009D5F446404200F006F891
:105CD4000122D20711436047010000BF4222120192
:105CE400D21E004207D002D4521E0018FCD5C10AAD
:105CF4004005120589187047F0B40E005E40012576
:105D0400ED072E40B446AE0ADF184C18F4423BD2DD
:105D1400F74241D2640D43D07F0D38D0E41BC90251
:105D2400DB0229432B43CF0ADB0A0600B61A9F4144
:105D340004D2641EB6197F41B6185F416812800D03
:105D440024180018844222DAE80C0021B6197F4195
:105D5400B61A9F4102D2B6185F413F1C40414941E7
:105D6400F4D3241C21DD2405B6197F41B61A9F41C2
:105D740005D33743C60737430026012F70416141DD
:105D840066463143F0BC7047FCD1F74205D200208F
:105D9400C14349054908F3E704D00020C143F1E7B2
:105DA4007F0DFAD000206146ECE72442FAD1401C72
:105DB40061410F03F6D30020E2E70000F4464A18DD
:105DC40005D200F00DF801D580174008604700F0B7
:105DD40007F80121C907884200D9080040426047FA
:105DE400400DC90208430121C9070843520D40214F
:105DF4000901521A521C06D452421F3201D4D04017
:105E04007047C017704700207047000000B59142EA
:105E140008D101239340984203D3012393405B1E8E
:105E2400180006E08A4202D2891AC84001E0511AD9
:105E3400884000BD10B504002000FFF75FF84D480E
:105E4400206008202061200010BD70B504000D0002
:105E54001600A560F6B2700600D4FEE72671A068AD
:105E6400FEF7A7FD200000F005F84349200000F0EC
:105E740025F870BD10B50400200000F00EF8802253
:105E84000021200000F017FA0A20FFF78CFEA02260
:105E94000021200000F00FFA10BD10B5040000210D
:105EA400A068FEF70FFE0621A06802F0DBF9A068E7
:105EB400FEF749FE0A20FFF776FE10BDF1B582B069
:105EC4000D00280002F0F4FB26A20CCAFFF716FD11
:105ED40002F007FC0500254C20008B21C90502F0C7
:105EE40031FC04002000290002F02CFC04002048AE
:105EF400210002F07CFC0400200002F0D9FB002207
:105F04001E4BFFF721FC02F0FDFCFFF757FF0700D3
:105F14000021029800F0B2F9060068467106490EA5
:105F240010220A430270684602780021029800F0A9
:105F3400C2F93A00D2B2FE21029800F0BCF9320054
:105F4400D2B20021029800F0B6F90520FFF72BFE2B
:105F5400A0223243D2B20021029800F0ACF9F7BD7E
:105F640000000000CDCCCCCCCCCCEC3F20BCBE4B54
:105F7400000080BFB499000000C0BE440000E03FB0
:105F840000B5090C0079814201D1012000E0002014
:105F9400C0B200BD38B505000C00210028002A68F5
:105FA40012689047002801D000200AE0E868002821
:105FB40006D02100E868EA681268126A904700E097
:105FC400002032BDF8B504000F001600390020008F
:105FD400226812689047002828D0390020002268DF
:105FE40052689047694608700121200000F046F984
:105FF40005002800F8250540F6B2042E02D028003A
:1060040004250543F6B2032E05D0F6B2022E02D0C3
:10601400F6B2002E03D1280004250543FFE72A0029
:10602400D2B20121200000F046F90BE0E06800281C
:1060340008D03200D2B23900E068E3681B689B697B
:106044009847FFE7F1BD38B505000C002C61E868FE
:10605400002806D02100E868EA681268926A90472E
:10606400FFE731BDF8B504000F001500390020002A
:1060740022681268904700281AD03900200022684C
:106084005268904706000C2221692800FFF7BEFEE3
:106094000500F6B2102E02DBF6B2FF2E13D1002358
:1060A4002A0092B23100C9B2200000F092F80AE04E
:1060B400E068002807D02A003900E068E3681B681C
:1060C4005B6A9847FFE7F1BD00B50200080C13793D
:1060D400984202D10800C0B200E0FE2000BDF8B52D
:1060E40004000F001600390020002268126890474F
:1060F400002828D039002000226852689047050003
:10610400F6B2012E0DD1EDB2102D02DBEDB2FF2D52
:1061140025D10023802252012900C9B2200000F0B9
:106124001FF8F6B2002E1AD1EDB2102D02DBEDB23B
:10613400FF2D14D180235B0100222900C9B2200065
:1061440000F00EF80BE0E068002808D03200D2B26C
:106154003900E068E3681B68DB699847FFE7F1BD35
:10616400F8B504000D0017001E002179A068FEF7A1
:10617400A9FCEDB2FF2D06D06846EDB204216943B7
:10618400891D017002E0FA206946087068460178AA
:10619400A068A268126812689047BFB23900A0686C
:1061A40002F060F8390089B2090A89B2A06802F0E5
:1061B40059F8B6B23100A06802F054F8310089B23F
:1061C400090A89B2A06802F04DF8A068FEF7BBFC8A
:1061D400F1BDF8B505000E0014001F00A4B2264856
:1061E400844200DB244CFFB2002F22D0A4B2002C46
:1061F40008D10023802252013100C9B22800FFF7E0
:10620400AFFF37E0A4B21C48844208D180235B016D
:1062140000223100C9B22800FFF7A2FF2AE0164885
:10622400031B9BB200223100C9B22800FFF798FF7C
:1062340020E0A4B21048844208D1002380225201F5
:106244003100C9B22800FFF78BFF13E0A4B2002C81
:1062540008D180235B0100223100C9B22800FFF776
:106264007FFF07E023009BB200223100C9B228005F
:10627400FFF776FFF1BD0000FF0F000038B5040002
:106284000D002179A068FEF71DFC2900C9B2A068A1
:10629400A268126812689047A068FEF754FC0122B5
:1062A4002179A068FEF702FCA068A1680968496921
:1062B4008847C0B232BD70B504000D0016002179C4
:1062C400A068FEF7FFFB2900C9B2A068A2681268A3
:1062D400126890473100C9B2A068A26812681268B7
:1062E4009047A068FEF72FFC70BD00001206130A49
:1062F4001A43130C1A4300BF094205D0830705D083
:106304000270401C491EF9D170470000130030B4DC
:1063140014001500103902D310393CC0FCD24907CF
:1063240000D30CC000D504C0890002D30280801CB5
:10633400002900D5027030BC7047000010B504007D
:106344002000FEF7DBFD02482060200010BD00BFE6
:106354003C99000000B5914206D08A4202D2891AC3
:10636400C84001E0511A884000BD70B504000E0019
:106374001500A660EDB278202840202800D0FEE762
:10638400257100202082074860820020A08200221C
:106394000521200000F045F9628A0021200000F068
:1063A40057F970BDFFFF0000F8B504000F00160098
:1063B4003900200022681268904700282CD0390048
:1063C40020002268526890470500F6B2002E02D0E1
:1063D400F6B2022E05D1608A0121A94001436182EF
:1063E40004E0608A0121A94088436082628A002116
:1063F400200000F02DF9F6B2022E06D10122EDB2F2
:106404002900200000F0ADF812E00022EDB22900CE
:10641400200000F0A6F80BE0E068002808D0320065
:10642400D2B23900E068E3681B689B699847FFE7CC
:10643400F1BDF2B50400170000992000226812682B
:106444009047002838D0009920002268526890476D
:106454000600608A0121B140084201D1012500E013
:106464000025EDB2002D13D0FFB2012F05D1208AF3
:106474000121B1400143218204E0208A0121B1407D
:1064840088432082228A1221200000F0E1F81FE0D4
:10649400FFB2002F05D0A08A0121B1400143A1829F
:1064A40004E0A08A0121B1408843A082A28A0C2181
:1064B400200000F0CDF80BE0E068002808D03A0096
:1064C400D2B20099E068E3681B68DB699847FFE78C
:1064D400F1BD38B505000C00AC61E868002806D0B1
:1064E4002100E868EA681268926A9047FFE731BDC4
:1064F400F8B504000E00150031002000226812686F
:106504009047002821D0310020002268526890472B
:1065140007000822A1692800FFF71CFF0500A069F5
:106524000221FFF775FB854207D20022FFB2390032
:1065340020002368DB69984712E00122FFB239008A
:1065440020002368DB6998470AE0E068002807D048
:106554002A003100E068E3681B685B6A9847FFE73C
:10656400F1BD70B504000D001600F6B2002E05D082
:10657400A08A0121A9400143A18204E0A08A01214B
:10658400A9408843A082A18A200000F040F870BD91
:1065940000B50200080C1379984202D10800C0B279
:1065A40000E0FE2000BD70B504000D0029002000AD
:1065B400226812689047002813D02900200022681E
:1065C4005268904706001221200000F061F82082F2
:1065D400208A0121B140084201D001200CE00020B2
:1065E4000AE0E068002806D02900E068E268126842
:1065F400126A904700E0002070BD00B5090C0079D4
:10660400814201D1012000E00020C0B200BD38B5B4
:1066140004000D00A582A28A0C21200000F018F8C5
:1066240031BD70B504000D0016002179A068FEF795
:1066340049FA2900A06801F015FE3100C9B2A0682A
:10664400A268126812689047A068FEF77CFA70BDD1
:1066540070B504000D0016002179A068FEF732FA27
:106664002900A06801F0FEFD310089B2090AC9B20F
:10667400A068A2681268126890473100C9B2A06885
:10668400A268126812689047A068FEF75CFA70BDB1
:10669400F8B504000F0000252179A068FEF712FA6E
:1066A4003900A06801F0DEFDA068FEF74CFA022272
:1066B4002179A068FEF7FAF90026A068A1680968A4
:1066C40009698847002813D0002E06D1A068A16864
:1066D40009684969884700020500012E06D1A068AF
:1066E400A16809684969884728430500761CE4E7DE
:1066F400280080B2F2BD30B4012464054D00EC42A0
:106704000BD85D00EC4208D80C001C436400044321
:10671400144304D28B4200D1824230BC7047FCD077
:106724009942FAD19042F8E730B4012464054D004F
:10673400EC420BD85D00EC4208D80C001C4364000A
:106744000443144304D2994200D1904230BC7047B0
:10675400FCD08B42FAD18242F8E70000FEB586B045
:10676400040012A8C0C80838149D0798E06306986E
:10677400A063089820640020702160540020A6497A
:106784000090019100220023200000F08DF9642084
:10679400A0652900200000F005FA0120049002966B
:1067A400039710A803C8009001910EA80CC80838DC
:1067B400200000F0B5F8FFF7C3F9A16D401A60643A
:1067C400200009B0F0BDF0B589B004007020205C51
:1067D400002801D10020A1E0FFF7B2F90500606CA8
:1067E400281A06900698A16D884200D295E06A4660
:1067F400A06B03C803C2083A206C03C86A460CCADB
:10680400FFF705F804AA03C2083A684603C8226DD4
:10681400636DFEF7FCFF02AA03C2083A2000203091
:1068240003C804AA0CCAFFF769F8A26CE36CFEF76C
:106834008BFFA064E1647120205C00280ED120004D
:10684400183003C802AA0CCAFFF758F802000B005C
:10685400A06CE16CFEF7DBFFA064E164A06EE16E66
:10686400A26CE36CFFF760FF04D2A06EE16EA0643B
:10687400E1640AE0A06CE16C226E636EFFF754FFE2
:1068840003D2206E616EA064E1647120205C002854
:106894000AD0200018300CC8083804A803C8FFF731
:1068A4002DF806000F0003E00020002106000F0071
:1068B400200028300CC8083802A803C8FFF71EF8C7
:1068C40002000B00A06CE16CFEF7A1FF32003B005C
:1068D400FEF73AFF06000F00A06EE16E32003B00A7
:1068E400FFF722FF04D2A06EE16E06000F000AE05B
:1068F40030003900226E636EFFF716FF03D2206E5C
:10690400616E06000F00E06BC0C00838684603C81B
:10691400206561656564012000E0002009B0F0BDD8
:10692400F8B50FB404000CA8C0C808380E9D02A81E
:1069340003C800220023FFF7F7FE0DD30AA803C8FB
:1069440000220023FFF7F0FE06D3300039000022B6
:106954000023FFF7E9FE00D25BE06563012D01D15E
:10696400012000E000207121605402A803C803C480
:10697400083C0AA803C82200083203C2083A2000CF
:106984001030C0C00838A06DFFF7A6F90022234BD1
:10699400FFF7B2F96A4603C2083A02A803C8220004
:1069A400183203C2083A0AA80CC80838684603C853
:1069B400FEF7A4FF2200203203C2083A3000390057
:1069C4006A460CCAFFF798F92200283203C2083A33
:1069D400206B01281DD12000183003C88022120624
:1069E40051402200183203C2083A2000203003C864
:1069F4008022120651402200203203C2083A2000AD
:106A0400283003C88022120651402200283203C2D3
:106A1400083A05B0F0BD000000E06F4000408F4030
:106A2400F1B586B014001D000EA8C0C80838069839
:106A3400406B0490029603970CA803C80090019140
:106A440022002B000698FFF76BFF07B0F0BDF8B5E6
:106A540004000D00012D26DB2800FFF733F90600A2
:106A64000F00A06DFFF738F902000B003000390069
:106A7400FFF742F906000F002000203003C832005F
:106A84003B00FEF73BFF2200203203C2083A2000FD
:106A9400283003C832003B00FFF72EF922002832C9
:106AA40003C2083AA565F1BD7CB5060006A830C846
:106AB4000838684603C822002B00FFF71CFE39D9AA
:106AC400684603C830667166B466F5667020305C4B
:106AD40000282FD0B06EF16EF26B0CCAFFF724FEC3
:106AE40005D2B06EF16EF26B03C2083A0BE0F06BA4
:106AF40003C8326E736EFFF717FE04D2306E716EE8
:106B0400F26B03C2083AB06EF16EB26CF36CFFF72D
:106B14000BFE04D2B06EF16EB064F1640AE0B06CA6
:106B2400F16C326E736EFFF7FFFD03D2306E716E3F
:106B3400B064F16473BD70B505000C00012C01D183
:106B4400012600E00026F6B2002E06D07020285C54
:106B5400002802D1280000F003F870202E5470BDE4
:106B640010B50400E06B03C8A064E164A06B03C823
:106B740020656165A06EE16EA26CE36CFFF7D4FD45
:106B840004D2A06EE16EA064E1640AE0A06CE16C42
:106B9400226E636EFFF7C8FD03D2206E616EA0649F
:106BA400E16410BD10B502000B007020105C0028D9
:106BB40020D0106B83421DD01000183003C88024ED
:106BC400240661401400183403C4083C100020302B
:106BD40003C88024240661401400203403C4083C04
:106BE4001000283003C8802424066140140028348F
:106BF40003C4083C136310BD7021405C704700005F
:106C040070B504000D0016006560A66000202062C7
:106C140000200C492200183203C2083A0020242123
:106C2400605400200849F4229200A21803C2083AD2
:106C34000A21200000F0EFFAFEF782FF2063200013
:106C440070BD00000000E03F00003E40002124220F
:106C540081547047F0B585B0040000203049605479
:106C6400EE20800020580A280BDB2420205C00281A
:106C740007D0002024216054200000F00BFA0120EA
:106C840006E2FEF75DFF02900298216B401A616BE9
:106C9400884201D20020FBE1029820636A466068C2
:106CA40003C803C2083A01201D4960542420205C13
:106CB400002837D10020E0630020EE2189006050D5
:106CC4000020EF2189006054684603C8F022920036
:106CD400A21803C2083A684603C8F2229200A21816
:106CE40003C2083A684603C82200103203C2083AB5
:106CF400012024216054A06803C8F6229200A2183F
:106D040003C2083AF6208000201803C8F422920037
:106D1400A2180CCAFEF718FDA26803C2083A21E0C3
:106D2400BD030000F0208000201803C86A460CCA86
:106D3400FFF7FAFC06D2684603C8F0229200A218B4
:106D440003C2083A684603C8F2229200A2180CCA89
:106D5400FFF7EAFC06D2684603C8F2229200A218A2
:106D640003C2083A200010300CC80838200018303C
:106D740003C8FEF7E9FC6A460CCAFFF7D5FC0DD23E
:106D8400F6208000201803C8F4229200A2180CCA2E
:106D9400FEF73DFDA26803C2083A1BE02000103054
:106DA40003C8220018320CCAFEF731FD02000B00A2
:106DB400684603C8FFF7B8FC0CD2F6208000201800
:106DC40003C8F4229200A2180CCAFEF7BDFCA26804
:106DD40003C2083A0120207001206070A56B6D1E6B
:106DE400002D2CD4082068432018066C476C2078AA
:106DF40000280AD0300039006A460CCAFFF794FC18
:106E040001D2012000E000202070607800280AD020
:106E1400684603C832003B00FFF786FC01D201201C
:106E240000E000206070082068432218106C516C48
:106E340008226A43A2189064D1646D1ED0E76846A4
:106E440003C820646164A06B092801DA00201FE1F3
:106E54002078002821D0E06B002801D10120E063D4
:106E6400E06B0021C943884207D10120E06301207F
:106E7400EF2189006054A06AE0620298A062EE20CB
:106E840080002058082148432018DA21890042183C
:106E9400684603C803C2083A2BE06078002828D06B
:106EA400E06B002802D10020C043E063E06B0128BE
:106EB4000DD10020C043E063EE2080002058401C28
:106EC400EE21890060500120EF2189006054EE20FA
:106ED400800020580A280CDAEE208000205808216F
:106EE40048432018DA2189004218684603C803C2BF
:106EF400083AEF208000205C002800D1C3E0EE2097
:106F040080002058032800DABDE0EE2080002058DD
:106F1400082148432018D8218900401803C8EE22CC
:106F24009200A25808235A43A218D6239B00D218D1
:106F34000CCAFEF76CFC002280235B03FFF7DBFB2B
:106F440018D8EE2080002058082148432018D82162
:106F54008900401803C8EE229200A25808235A431D
:106F6400A218D6239B00D2180CCAFEF750FC0600C8
:106F74000F0017E0EE208000205808214843201815
:106F8400D6218900401803C8EE229200A258082393
:106F94005A43A218D8239B00D2180CCAFEF737FC18
:106FA40006000F00EE2080002058082148432018D6
:106FB400D6218900401803C8EE229200A258082363
:106FC4005A43A218D4239B00D2180CCAFEF71FFC04
:106FD400002280235B03FFF78EFB16D8EE2080008F
:106FE4002058082148432018D6218900401803C896
:106FF400EE229200A25808235A43A218D4239B00DD
:10700400D2180CCAFEF703FC15E0EE2080002058CD
:10701400082148432018D4218900401803C8EE22CF
:107024009200A25808235A43A218D6239B00D218D0
:107034000CCAFEF7ECFB32003B00FEF785FB002296
:107044008023DB05FEF758FE06000F00F0208000C9
:10705400201803C8F2229200A2180CCAFEF7D7FB2C
:107064005EA20CCAFEF74AFC02000B003000390095
:10707400FFF75AFB07D2200000F00CF8002024216F
:107084006054012004E00020EF21890060540020B6
:1070940005B0F0BDD0B50400F6208000201803C868
:1070A400A26803C2083AF420800020180CC80838EB
:1070B40000208021C905FEF721FC0022404BFEF789
:1070C4001DFC06000F00F0208000201803C8F222E7
:1070D4009200A2180CCAFEF79AFB3AA20CCAFEF759
:1070E4000DFC02000B0030003900FEF705FEF8220B
:1070F4009200A21803C2083AA06AE16A401AFEF795
:10710400EBFD0022374BFEF7F7FDFA229200A2189E
:1071140003C2083AD0BD80B5016A012909D1F8211A
:10712400890040180CC8083828A003C8FEF7E6FBFD
:1071340008E0F821890040180CC808382AA003C8C0
:10714400FEF7DCFB04BD10B50400206A01280FD152
:10715400F820800020180CC808381EA003C8FEF7C9
:10716400CDFBFA229200A2180CCAFEF7C5FD0EE070
:10717400F820800020180CC808381DA003C8FEF7AA
:10718400BDFBFA229200A2180CCAFEF7B5FD10BD91
:1071940010B50400206A01280FD1F82080002018BF
:1071A4000CC8083814A003C8FEF7A8FBFA22920002
:1071B400A2180CCAFEF7A2FB01E00020002110BDBA
:1071C400000010406E861BF0F9210940333333333D
:1071D4003333E33F333333333333F33F9A9999995A
:1071E4009999A93F00408F409A9999999999D93FC3
:1071F400B81E85EB51B8DE3F333333333333B33FFB
:10720400F421890041180CC1083970470100183174
:107214000CC10839704700B5012901DA01221100B7
:10722400192905DA04224A438263FA22426304E0FC
:10723400642282630A224A43426300BD00B5504877
:1072440000884005FBD14F4800884005FBD100BDB4
:1072540000B54D4800680007000F0028F9D100BDB3
:1072640000B50169C906C90E0029FAD100BD00B5EF
:1072740081680905090D0029FAD100BD00B59142C4
:1072840006D08A4202D2891AC84001E0511A8840C5
:1072940000BD10B50400FFF7D1FF64B2002C06D185
:1072A4003A4800683A4901403848016015E064B240
:1072B400062C12DB3548006835490140334801602B
:1072C4003248006864B2A11F0904F02212030A4084
:1072D40002432E480260002004002E480078F0216A
:1072E40001402007000F08432A4908702A48007803
:1072F400F02101402007000F084327490870FFF7D9
:107304009DFF264800780221014324480170244847
:1073140000780221014322480170FFF78FFF2148C2
:107324000078022101431F4801701F4800780221A0
:1073340001431D480170FFF781FF1C4800780100DC
:10734400C907C90F0029F8D0194800780100C907F6
:10735400C90F0029F1D001201449087001201449F3
:1073640008700E480078FD2101400C4801700C485B
:107374000078FD2101400A480170FFF75FFF10BD4E
:107384002044004220480042105400421C1800408F
:10739400FFFFF0FF02440042024800420044004262
:1073A4000048004218440042184800420644004283
:1073B40006480042F8B506000F00642E04D33900D5
:1073C4003000FDF7B6FD32E10621300000F040FD4B
:1073D40000281FD1FFF73CFF0A22954801683800B6
:1073E400FFF74CFF070038008005800D91490880A5
:1073F400FFF72EFF9048007800280AD101208E491B
:1074040008708E480078022101438C480170FFF710
:107414001FFF0CE10B21300000F01AFD002800D002
:10742400EDE000240025684685490C227243891842
:10743400097A4907490F417081480C21714340186A
:10744400007AC0B2C0080100C907C90F684681703C
:1074540068468078012822D179480C21714340186C
:10746400007AC010C0070CD4764875490C227243C8
:107474008918097A09114907490F042251434458CC
:107484000CE070486E490C2272438918097A09117C
:107494004907490F042251434018C46821E0684851
:1074A4000C2171434018007AC010C0070CD4654801
:1074B40063490C2272438918097A09114907490F53
:1074C4000422514345580CE05E485D490C22724346
:1074D4008918097A09114907490F042251434018B0
:1074E400C568002C05D0684657496118890A01709F
:1074F40004E0684654496918890A017010224C480E
:1075040001683800FFF7BAFE070050486946097859
:10751400405C00285CD101204C496A4612788854AA
:1075240040204B4A4B496B461B78C95C04235943A2
:10753400505049480068494901400029F9D1002CBC
:1075440022D020680221884320602000FFF788FEB3
:10755400206820602000FFF783FE022020732000B3
:10756400FFF77EFE380069464978022251436118CC
:1075740088832000FFF774FE206802210143216004
:107584002000FFF76DFE52E028680221884328603E
:107594002800FFF76CFEE86B02210143E963280031
:1075A400FFF765FE6846407804214843281847647D
:1075B4002800FFF75CFE2A4828642800FFF757FEDE
:1075C40028680221014329602800FFF750FE2EE0BD
:1075D400002C0AD0380069464978022251436118C8
:1075E40008862000FFF73CFE21E06846407804212D
:1075F4004843281807672800FFF739FE17E00121E0
:10760400300000F025FC002811D108220848016848
:107614003800FFF733FE0700802F04D2002130002A
:10762400FDF7F7FC03E001213000FDF7F2FCF1BDAA
:1076340038000020085400429430002000540042D6
:10764400A88900000800002000DCFFBD30300020C5
:10765400801C0040C49E0000041C0040FD07000084
:10766400FFFF000090420ED1A4460C001C430128E9
:10767400644107D0994205D14C006415641C6440F0
:1076840000D30C036446704710B50400200001F0D9
:1076940065F910BD70B50400802600252A0031006C
:1076A4002000FEF723FE200000F014F8200070BD37
:1076B40038B504000D0080202158200000F035F872
:1076C40084216158884204D0802161586554802106
:1076D400605031BD002180228150002184228150DC
:1076E400704738B5040084202058802161588842AE
:1076F40002D10020C0430BE084202058255C842064
:107704002158200000F011F884216050EDB22800C7
:1077140032BD00B501008020085884228A58801A9E
:10772400002801D58030FFE700BD0200491C48064F
:10773400400E704710B50400802021582000FFF748
:10774400F4FF84216158884201D1012000E0002027
:10775400C0B210BD0121C206D20E9140484A116048
:107764007047F0B540B2002821D5464C40B202071C
:10777400120F083A950804225543424A40B20307BF
:107784001B0F083B9B0804267343D258FF2386072C
:10779400B60F08277E43B3409A438B01DBB28607BA
:1077A400B60F08277E43B340134363511AE0364AA9
:1077B40040B2830804246343D258FF238407A40FF0
:1077C40008256C43A3409A438B01DBB28407A40FC2
:1077D40008256C43A34013432B4A40B28408042574
:1077E4006C431351F0BD0160704700680068800865
:1077F4004007400F7047F8B504000E0015001F0045
:10780400200000F09FFA200000F087F876B2B00064
:107814001C2101406DB26803E022120202400A43B7
:107824002068026084202168887576B2012E26D1F2
:107834006DB2012D03D110206946088002E00820B2
:1078440069460880624800680821484369460988F7
:107854007943FEF7E0F921688989C904C90C02005B
:1078640052030A4321688A8121688A89E021090236
:107874001140C008C004C00C084321688881F1BDD0
:1078840000E100E01CED00E000E400E0F0B56D462E
:1078940014242C575BB2022B01D1002600E00126F0
:1078A40005682D683606F0273F05374052B2960723
:1078B4003E432E4305682E605BB2022B01D10025A6
:1078C40001E05BB21D0006687668B44649B24F0712
:1078D4007F0F64B2A6013E436D03354366463543CC
:1078E40006687560F0BD70B403681B6849B20C0487
:1078F400C025AD02254052B21405C026B603264069
:107904002E431E4303681E6003685B68C024A40200
:107914001C4303685C6070BC704700B5016809686B
:1079240001220A4301680A6001680968C907FBD497
:107934000168C969C907F7D400BD00B501680968C1
:1079440002220A4301680A600168C9690A009207B1
:10795400D20F002AF8D100BD00210268518370477C
:107964000068007E0100C9B289080800C007C00F82
:1079740070470068007EC0B2C00970470168097E84
:1079840080220A4301680A7670470068017E080075
:10799400C007C00F70470068008DC0B2704738B58B
:1079A40005000C002800FFF7F0FF0028FAD0E4B22D
:1079B40028680485012032BD0168897D01220A43BB
:1079C40001688A75704701210268117570470000CB
:1079D4003400002010B504005748006802225143C7
:1079E400FEF719F9401E10BD00B5016809680122AF
